:100000000C9432000C94B5000C940C010C9470010B
:100010000C944F000C944F000C944F000C944F0024
:100020000C944F000C944F000C944F000C94310230
:100030000C944F000C944F000C944F000C944F0004
:100040000C944F000C944F000C944F000C944F00F4
:100050000C944F00EF03F203F503F803FB03FE03D8
:100060000104040411241FBECFE5D8E0DEBFCDBFDC
:1000700010E0A0E6B0E0E6E6FDE002C005900D92DB
:10008000A236B107D9F720E0A2E6B0E001C01D9288
:10009000AE37B207E1F70E9451000C94B1060C9400
:1000A00000000E94A00180E090E008958091760019
:1000B0008823C9F080916F0090917000A091710029
:1000C000B09172002091740030917500821B930BE7
:1000D000A109B109853F9140A105B10520F0109219
:1000E000760010926E00089581E090E00E9438033F
:1000F0009DED980F993218F48093600008958CE379
:100100008093600008950E9466030E9478030E9415
:1001100089030E94BF030E948C020E94AD030E94CB
:100120009B030E94FF0585E00E9407066AE070E0DD
:1001300080E090E00E941D0663E080E00E948A0556
:1001400063E081E00E948A0562E082E00E948A0505
:100150000E9415030E9474007894089560916000D5
:1001600081E090E00E94190308951F920F920FB64C
:100170000F9211242F933F934F935F936F937F932D
:100180008F939F93AF93BF93EF93FF9380917700EB
:10019000882389F180917600811112C081E08093DB
:1001A000760080916F0090917000A0917100B091E5
:1001B000720090937500809374000E9456001BC0DB
:1001C0008091600090E005968C34910514F08BE4EA
:1001D00090E0809360000E94DC020E94AE0080915B
:1001E0006F0090917000A0917100B0917200909397
:1001F000750080937400FF91EF91BF91AF919F9133
:100200008F917F916F915F914F913F912F910F90BF
:100210000FBE0F901F9018951F920F920FB60F925E
:1002200011242F933F934F935F936F937F938F93FB
:100230009F93AF93BF93EF93FF93809177008823B1
:1002400089F180917600811112C081E0809376005F
:1002500080916F0090917000A0917100B091720038
:1002600090937500809374000E9456001BC080918B
:10027000600090E005978332910514F483E290E0EA
:10028000809360000E94DC020E94AE0080916F00AB
:1002900090917000A0917100B091720090937500E0
:1002A00080937400FF91EF91BF91AF919F918F91D7
:1002B0007F916F915F914F913F912F910F900FBE62
:1002C0000F901F9018950E9472030E9495030E9440
:1002D0007E030E94A7030E94B9030E9410030895A1
:1002E0001F920F920FB60F9211242F933F934F93AB
:1002F0005F936F937F938F939F93AF93BF93EF938E
:10030000FF9381E090917700911180E080937700D6
:10031000811103C00E94630102C00E946C03FF911F
:10032000EF91BF91AF919F918F917F916F915F916D
:100330004F913F912F910F900FBE0F901F901895E6
:100340000E948300809177008823C9F00E946C038B
:1003500080916E00882319F00E9410030DC08091D7
:100360007600882329F0809160000E94DC0204C09E
:10037000809178000E94DC020E945600E3CF0E9428
:100380006301E0CF0E9495030E94A7030E94B3037C
:1003900080916200823320F00E94840310926200F8
:1003A000809162008F5F8093620008950E947E03B7
:1003B0000E94B9030E948F030E94A10308950E9426
:1003C000C403809378002091630030E0F901EC5978
:1003D000FF4F8083C90101966AE070E00E944706E2
:1003E00080936300E4E6F0E04EE650E020E030E089
:1003F0008191280F311DE417F507D1F7ADECBCEC66
:100400000E948306969587959695879596958795EC
:1004100099272091600030E0A90145505109481703
:1004200059074CF440917300411105C00E94D60158
:100430001092730008952B5F3F4F8217930734F497
:100440000E94C20181E08093730008950E94B90365
:100450000E947E030E94A7030E94950310927300DE
:1004600008951F920F920FB60F9211242F933F936E
:100470004F935F936F937F938F939F93AF93BF93AC
:10048000EF93FF9380916F0090917000A0917100A5
:10049000B09172000196A11DB11D80936F009093E1
:1004A0007000A0937100B09372008091790082BFB8
:1004B000809177008823F9F00E94DF0160916F003E
:1004C00070917000809171009091720024E630E08C
:1004D00040E050E00E945B06672B682B692B59F4C3
:1004E00080917600882339F090916E0081E091111F
:1004F00080E080936E00FF91EF91BF91AF919F914B
:100500008F917F916F915F914F913F912F910F90BC
:100510000FBE0F901F90189541E064E080E00E94AC
:10052000740441E065E080E00E94740441E066E00C
:1005300080E00E94740441E067E080E00E9474045F
:1005400041E061E080E00E94740441E062E080E00C
:100550000E94740441E063E080E00E947404089506
:1005600041E061E080E00E94E50441E065E082E076
:100570000E94E504089540E061E080E00E94E50407
:1005800040E065E082E00E94E504089541E062E019
:1005900080E00E94E50441E065E082E00E94E5041D
:1005A000089540E062E080E00E94E50440E065E0FC
:1005B00082E00E94E5040895CF93DF93D82FCDEC1D
:1005C0008C9FC12D1124C695C695C6958C2F8295FA
:1005D000807F8BBB0E94B0022FEF84E694E0215015
:1005E00080409040E1F700C000000E94BB02CC0FA9
:1005F0008C2F880F880FC80FDC1BD295D07FDBBBF8
:100600000E94C6022FEF84E694E021508040904083
:10061000E1F700C000000E94D102DF91CF91089560
:100620000E94BB020E94D102089581E00E940F0443
:1006300008951F93CF93DF93182FC92FD62F0E94B1
:100640001C048C2F877080650E943904812F0E94C2
:100650005B048D2F0E945B040E942C048FE19EE4BA
:100660000197F1F700C00000DF91CF911F9108952D
:100670000F931F93CF93DF931F92CDB7DEB7082F51
:100680001982192F106581E00E940F040E941C043A
:10069000812F0E943904802F0E945B040E942F0446
:1006A000812F0E944B04CE0101960E9467040E9494
:1006B0002C048FE19EE40197F1F700C000008981CE
:1006C0000F90DF91CF911F910F91089541E064E069
:1006D00083E00E947404089541E064E083E00E9496
:1006E000E504089540E064E083E00E94E504089595
:1006F00041E060E083E00E947404089540E060E01F
:1007000083E00E94E504089560E083E00E945605BE
:10071000089541E061E083E00E947404089541E09F
:1007200061E083E00E94E504089540E061E083E039
:100730000E94E504089541E067E082E00E947404AD
:10074000089541E067E082E00E94E504089540E0FA
:1007500067E082E00E94E504089541E066E082E0FF
:100760000E947404089541E066E082E00E94E5047E
:10077000089540E066E082E00E94E504089566E0A6
:1007800081E00E94DD03089580E00E94E6039C0161
:10079000A8E8B3E10E948306052E5AE09695879556
:1007A000779567955A95D1F7502D2AE030E040E0D3
:1007B00050E00E945B06C90108958295880F880F5A
:1007C000807C87B96770606866B9089590E088306A
:1007D0009105E8F4FC01E65DFF4F0C947D0680E492
:1007E00087B917C081E487B914C082E487B911C002
:1007F00083E487B90EC084E487B90BC085E487B968
:1008000008C086E487B905C087E487B902C080E4E0
:1008100087B9369A349BFECF84B195B1089591B1D2
:100820009C7F91B990B19C6090B9880F816082B92A
:1008300086B7846C86BF089584EA86BF06B607FE35
:10084000FDCF81B1887F8830E1F78FE19EE4019789
:10085000F1F700C00000089584E986BF089584EA96
:1008600086BF06B607FEFDCF81B1887F8031E1F7F4
:10087000089588237CF0880F83B986B78F7D86BF63
:1008800086B7846886BF06B607FEFDCF81B1887F34
:100890008831E1F7089588236CF0880F816083B96F
:1008A00086B7846A86BF06B607FEFDCF81B1887F12
:1008B0008034E1F7089583B986B7846886BF06B6A9
:1008C00007FEFDCF81B1887F8832E1F70895FC01F2
:1008D00084E886BF06B607FEFDCF91B1987F9835B4
:1008E000E1F783B180830895442319F04130C9F1C1
:1008F0000895813091F028F08230D9F0833029F1C9
:1009000008952AB381E090E002C0880F991F6A958C
:10091000E2F7809582238ABB089527B381E090E0B7
:1009200002C0880F991F6A95E2F78095822387BBE2
:10093000089524B381E090E002C0880F991F6A9562
:10094000E2F78095822384BB089521B381E090E093
:1009500002C0880F991F6A95E2F78095822381BBB8
:100960000895813089F028F08230C9F0833011F188
:1009700008952AB381E090E002C0880F991F6A951C
:10098000E2F7822B8ABB089527B381E090E002C092
:10099000880F991F6A95E2F7822B87BB089524B3CD
:1009A00081E090E002C0880F991F6A95E2F7822BE0
:1009B00084BB089521B381E090E002C0880F991FA5
:1009C0006A95E2F7822B81BB0895442319F04130E8
:1009D000C9F10895813091F028F08230D9F0833048
:1009E00029F108952BB381E090E002C0880F991F90
:1009F0006A95E2F7809582238BBB089528B381E046
:100A000090E002C0880F991F6A95E2F780958223D3
:100A100088BB089525B381E090E002C0880F991F3C
:100A20006A95E2F78095822385BB089522B381E021
:100A300090E002C0880F991F6A95E2F780958223A3
:100A400082BB0895813089F028F08230C9F083306C
:100A500011F108952BB381E090E002C0880F991F37
:100A60006A95E2F7822B8BBB089528B381E090E072
:100A700002C0880F991F6A95E2F7822B88BB089500
:100A800025B381E090E002C0880F991F6A95E2F7D4
:100A9000822B85BB089522B381E090E002C0880FCD
:100AA000991F6A95E2F7822B82BB0895813089F005
:100AB00028F08230C9F0833011F108952BB381E022
:100AC00090E002C0880F991F6A95E2F782278BBBDE
:100AD000089528B381E090E002C0880F991F6A95BD
:100AE000E2F7822788BB089525B381E090E002C039
:100AF000880F991F6A95E2F7822785BB089522B374
:100B000081E090E002C0880F991F6A95E2F7822782
:100B100082BB0895F894813069F120F0823009F4A5
:100B200051C06BC08E988BB780648BBF613069F009
:100B300028F0623089F06330B1F05FC085B78D7FF7
:100B400085BF85B78E7F85BF58C085B78D7F85BF30
:100B500085B7816085BF51C085B7826085BF85B785
:100B60008E7F85BF4AC085B7826085BF85B78160AB
:100B700085BF43C08F988BB780688BBF613069F0A9
:100B800028F0623089F06330B1F037C085B7877FD5
:100B900085BF85B78B7F85BF30C085B7877F85BF11
:100BA00085B7846085BF29C085B7886085BF85B754
:100BB0008B7F85BF22C085B7886085BF85B784607D
:100BC00085BF1BC0BD988BB780628BBF613091F031
:100BD00028F0623039F0633049F00FC084B78F7B62
:100BE00084BF0BC084B78F7B84BF07C084B7806489
:100BF00084BF03C084B7806484BF78940895BB9A8F
:100C000083B713BE89B7816089BF7894089593B77D
:100C10009D7F93BF93B7956093BF882319F085306C
:100C200029F0089583B7887F83BF089583B78D7FA8
:100C300083BF83B7856083BF08950F931F939B0184
:100C4000AC01A8EEB3E00E949206DC01CB016894EF
:100C500015F8B695A795979587951694D1F7092F0E
:100C60001A2F2B2F33270F5F1F4F2F4F3F4F00930C
:100C70007A0010937B0020937C0030937D00682FD6
:100C800061956093790062BF1F910F91089597FB62
:100C9000072E16F4009407D077FD09D00E949D0618
:100CA00007FC05D03EF4909581959F4F089570956F
:100CB00061957F4F0895A1E21A2EAA1BBB1BFD016F
:100CC0000DC0AA1FBB1FEE1FFF1FA217B307E4072B
:100CD000F50720F0A21BB30BE40BF50B661F771F83
:100CE000881F991F1A9469F7609570958095909563
:100CF0009B01AC01BD01CF010895EE0FFF1F0590D0
:100D0000F491E02D0994A29FB001B39FC001A39F6D
:100D1000700D811D1124911DB29F700D811D112434
:100D2000911D08950E948306A59F900DB49F900D7C
:100D3000A49F800D911D11240895AA1BBB1B51E196
:100D400007C0AA1FBB1FA617B70710F0A61BB70B3B
:100D5000881F991F5A95A9F780959095BC01CD01E0
:060D60000895F894FFCF96
:020D66003C004F
:00000001FF
