:100000000C9432000C94B6000C941A010C948B01E1
:100010000C944F000C944F000C944F000C944F0024
:100020000C944F000C944F000C944F000C947002F1
:100030000C944F000C944F000C944F000C944F0004
:100040000C944F000C944F000C944F000C944F00F4
:100050000C944F0047054A054D05500553055605BC
:1000600059055C0511241FBECFE5D8E0DEBFCDBF2A
:1000700010E0A0E6B0E0E8E9F0E102C005900D92E2
:10008000A236B107D9F720E0A2E6B0E001C01D9288
:10009000AE37B207E1F70E9451000C944A080C9465
:1000A00000000E94D30180E090E0089580917600E6
:1000B0008823C1F080916F0090917000A091710031
:1000C000B09172002091740030917500821B930BE7
:1000D000A109B109C397A105B10520F010927600DE
:1000E00010926E00089581E090E00E9490049DEDD2
:1000F000980F993218F48093600008958CE38093F0
:10010000600008950E94BE040E94D0040E94E10491
:100110000E9417050E94E4030E9405050E94F30453
:100120000E9413030E94570785E00E945F076AE060
:1001300070E080E090E00E94750763E080E00E943C
:10014000E20663E081E00E94E20662E082E00E9453
:10015000E2060E946D040E947300789408956091F5
:10016000600081E090E00E94710408951F920F9258
:100170000FB60F9211242F933F934F935F936F937A
:100180007F938F939F93AF93BF93EF93FF93809150
:1001900077008823F1F180917600811112C081E00F
:1001A0008093760080916F0090917000A091710013
:1001B000B091720090937500809374000E94560075
:1001C00028C08091600090E005968C34910514F071
:1001D0008BE490E08093600060E081E00E94CC03BB
:1001E0006091600070E080E090E00E94AF03809139
:1001F00060000E94340480916F0090917000A09183
:100200007100B091720090937500809374000E9409
:10021000AF00FF91EF91BF91AF919F918F917F912F
:100220006F915F914F913F912F910F900FBE0F9063
:100230001F9018951F920F920FB60F9211242F93B3
:100240003F934F935F936F937F938F939F93AF935E
:10025000BF93EF93FF93809177008823F1F1809112
:100260007600811112C081E08093760080916F004A
:1002700090917000A0917100B09172009093750000
:10028000809374000E94560028C08091600090E026
:1002900005978332910514F483E290E08093600027
:1002A00060E081E00E94CC036091600070E080E03B
:1002B00090E00E94AF03809160000E94340480911E
:1002C0006F0090917000A0917100B09172009093B6
:1002D0007500809374000E94AF00FF91EF91BF9171
:1002E000AF919F918F917F916F915F914F913F91CE
:1002F0002F910F900FBE0F901F9018950E94CA0467
:100300000E94ED040E94D6040E94FF040E94110581
:100310000E94680408951F920F920FB60F92112445
:100320002F933F934F935F936F937F938F939F93FD
:10033000AF93BF93EF93FF9381E09091770091117A
:1003400080E08093770060E080E00E94CC036091C1
:10035000770070E080E090E00E94AF03809177002A
:10036000811103C00E947E010DC00E94C40460E0A0
:1003700081E00E94CC036091600070E080E090E03A
:100380000E94AF03FF91EF91BF91AF919F918F9129
:100390007F916F915F914F913F912F910F900FBE81
:1003A0000F901F9018950E948200809177008823FB
:1003B000C9F00E94C40480916E00882319F00E9445
:1003C00068040DC080917600882329F08091600038
:1003D0000E94340404C0809178000E9434040E947A
:1003E0005600E3CF0E947E01E0CF0E940B050E94E1
:1003F000ED040E94FF04809162008A3020F00E9488
:10040000DC0410926200809162008F5F8093620032
:1004100008950E94E7040E94F9040E94D6040E94F5
:10042000110508950E941C058093780066E080E025
:100430000E94CC036091780070E080E090E00E9420
:10044000AF038091630090E0FC01EC59FF4F2091D5
:100450007800208301966AE070E00E949F078093F5
:100460006300E4E6F0E04EE650E020E030E0819109
:10047000280F311DE417F507D1F7ADECBCEC0E9455
:10048000DB079695879596958795969587959927F5
:100490002091600030E0A9014550510948175907E3
:1004A0004CF440917300411105C00E940902109262
:1004B000730008952B5F3F4F8217930734F40E9417
:1004C000F50181E08093730008950E9411050E9458
:1004D000D6040E94FF040E94ED0410927300089558
:1004E0001F920F920FB60F9211242F933F934F93A9
:1004F0005F936F937F938F939F93AF93BF93EF938C
:10050000FF9380916F0090917000A0917100B09165
:1005100072000196A11DB11D80936F009093700031
:10052000A0937100B09372008091790082BF809196
:1005300077008823F9F00E94120260916F00709199
:10054000700080917100909172002AE030E040E0EC
:1005500050E00E94B307672B682B692B59F48091F8
:100560007600882339F090916E0081E0911180E04F
:1005700080936E00FF91EF91BF91AF919F918F910A
:100580007F916F915F914F913F912F910F900FBE8F
:100590000F901F901895CF93C82F40E060E081E046
:1005A0000E943D0640E061E081E00E943D0640E09F
:1005B00063E081E00E943D0688B39C2F907F8F709E
:1005C000892B88BB41E063E081E00E943D068FE912
:1005D0009FE00197F1F700C0000040E063E081E098
:1005E0000E943D0628B330E1C39FC0011124922F21
:1005F0009F70892B88BB41E063E081E00E943D064B
:100600008FE99FE00197F1F700C0000040E063E050
:1006100081E00E943D068FE39FE10197F1F700C062
:100620000000CF91089541E064E081E00E94CC0594
:1006300041E065E081E00E94CC0541E066E081E0B8
:100640000E94CC0541E067E081E00E94CC0541E0DA
:1006500060E081E00E94CC0541E061E081E00E9421
:10066000CC0541E063E081E00E94CC0583E30E9479
:10067000CB0282E30E94CB0288E20E94CB0281E09F
:100680000E94CB0282E00E94CB0286E00E94CB0255
:100690008CE00E94CB028FE39FE10197F1F700C04D
:1006A00000000895CF93C82F41E060E081E00E94F0
:1006B0003D0640E061E081E00E943D0640E063E0ED
:1006C00081E00E943D0688B39C2F907F8F70892B1C
:1006D00088BB41E063E081E00E943D068FE99FE036
:1006E0000197F1F700C0000040E063E081E00E9464
:1006F0003D0628B330E1C39FC0011124922F9F70A3
:10070000892B88BB41E063E081E00E943D068FE9D0
:100710009FE00197F1F700C0000040E063E081E056
:100720000E943D068FE39FE10197F1F700C00000B2
:10073000CF910895CF93DF93EC018881882361F0F6
:1007400021960E9452038FE39CE90197F1F700C0C4
:10075000000089918111F5CFDF91CF910895CF935A
:10076000DF93CDB7DEB72A970FB6F894DEBF0FBE82
:10077000CDBF2AE0AE014F5F5F4F0E940908CE0156
:1007800001960E949A032A960FB6F894DEBF0FBE18
:10079000CDBFDF91CF910895813049F028F08230AC
:1007A00049F0833051F00CC080E8860F0AC080EC1D
:1007B000860F07C084E9860F04C084ED860F01C050
:1007C00080E00E94CB02089541E064E080E00E9456
:1007D000CC0541E065E080E00E94CC0541E066E0A8
:1007E00080E00E94CC0541E067E080E00E94CC05FB
:1007F00041E061E080E00E94CC0541E062E080E001
:100800000E94CC0541E063E080E00E94CC050895A1
:1008100041E061E080E00E943D0641E065E082E069
:100820000E943D06089540E061E080E00E943D06A0
:1008300040E065E082E00E943D06089541E062E00C
:1008400080E00E943D0641E065E082E00E943D06B6
:10085000089540E062E080E00E943D0640E065E0EF
:1008600082E00E943D060895CF93DF93D82FCDEC10
:100870008C9FC12D1124C695C695C6958C2F829547
:10088000807F8BBB0E9408042FE788E391E0215012
:1008900080409040E1F700C000000E941304CC0F9C
:1008A0008C2F880F880FC80FDC1BD295D07FDBBB45
:1008B0000E941E042FE788E391E021508040904081
:1008C000E1F700C000000E942904DF91CF91089554
:1008D0000E9413040E942904089581E00E94670584
:1008E00008951F93CF93DF93182FC92FD62F0E94FF
:1008F00074058C2F877080650E949105812F0E945E
:10090000B3058D2F0E94B3050E9484058FE19EE4FC
:100910000197F1F700C00000DF91CF911F9108957A
:100920000F931F93CF93DF931F92CDB7DEB7082F9E
:100930001982192F106581E00E9467050E947405D5
:10094000812F0E949105802F0E94B3050E94870588
:10095000812F0E94A305CE0101960E94BF050E942F
:1009600084058FE19EE40197F1F700C000008981C2
:100970000F90DF91CF911F910F91089541E064E0B6
:1009800083E00E94CC05089541E064E083E00E948A
:100990003D06089540E064E083E00E943D0608952E
:1009A00041E065E083E00E94CC05089540E065E009
:1009B00083E00E943D06089565E083E00E94AE0654
:1009C000089541E066E083E00E94CC05089541E08F
:1009D00066E083E00E943D06089540E066E083E023
:1009E0000E943D06089541E067E082E00E94CC0548
:1009F000089541E067E082E00E943D06089540E0EE
:100A000067E082E00E943D06089541E066E082E0F2
:100A10000E94CC05089541E066E082E00E943D0618
:100A2000089540E066E082E00E943D06089566E099
:100A300081E00E943505089580E00E943E059C01FA
:100A4000A8E8B3E10E94DB07052E5AE0969587954A
:100A5000779567955A95D1F7502D2AE030E040E020
:100A600050E00E94B307C90108958295880F880F4E
:100A7000807C87B96770606866B9089590E08830B7
:100A80009105E8F4FC01E65DFF4F0C94D50780E486
:100A900087B917C081E487B914C082E487B911C04F
:100AA00083E487B90EC084E487B90BC085E487B9B5
:100AB00008C086E487B905C087E487B902C080E42E
:100AC00087B9369A349BFECF84B195B1089591B120
:100AD0009C7F91B990B19C6090B9880F816082B978
:100AE00086B7846C86BF089584EA86BF06B607FE83
:100AF000FDCF81B1887F8830E1F78FE19EE40197D7
:100B0000F1F700C00000089584E986BF089584EAE3
:100B100086BF06B607FEFDCF81B1887F8031E1F741
:100B2000089588237CF0880F83B986B78F7D86BFB0
:100B300086B7846886BF06B607FEFDCF81B1887F81
:100B40008831E1F7089588236CF0880F816083B9BC
:100B500086B7846A86BF06B607FEFDCF81B1887F5F
:100B60008034E1F7089583B986B7846886BF06B6F6
:100B700007FEFDCF81B1887F8832E1F70895FC013F
:100B800084E886BF06B607FEFDCF91B1987F983501
:100B9000E1F783B180830895442319F04130C9F10E
:100BA0000895813091F028F08230D9F0833029F116
:100BB00008952AB381E090E002C0880F991F6A95DA
:100BC000E2F7809582238ABB089527B381E090E005
:100BD00002C0880F991F6A95E2F78095822387BB30
:100BE000089524B381E090E002C0880F991F6A95B0
:100BF000E2F78095822384BB089521B381E090E0E1
:100C000002C0880F991F6A95E2F78095822381BB05
:100C10000895813089F028F08230C9F0833011F1D5
:100C200008952AB381E090E002C0880F991F6A9569
:100C3000E2F7822B8ABB089527B381E090E002C0DF
:100C4000880F991F6A95E2F7822B87BB089524B31A
:100C500081E090E002C0880F991F6A95E2F7822B2D
:100C600084BB089521B381E090E002C0880F991FF2
:100C70006A95E2F7822B81BB0895442319F0413035
:100C8000C9F10895813091F028F08230D9F0833095
:100C900029F108952BB381E090E002C0880F991FDD
:100CA0006A95E2F7809582238BBB089528B381E093
:100CB00090E002C0880F991F6A95E2F78095822321
:100CC00088BB089525B381E090E002C0880F991F8A
:100CD0006A95E2F78095822385BB089522B381E06F
:100CE00090E002C0880F991F6A95E2F780958223F1
:100CF00082BB0895813089F028F08230C9F08330BA
:100D000011F108952BB381E090E002C0880F991F84
:100D10006A95E2F7822B8BBB089528B381E090E0BF
:100D200002C0880F991F6A95E2F7822B88BB08954D
:100D300025B381E090E002C0880F991F6A95E2F721
:100D4000822B85BB089522B381E090E002C0880F1A
:100D5000991F6A95E2F7822B82BB0895813089F052
:100D600028F08230C9F0833011F108952BB381E06F
:100D700090E002C0880F991F6A95E2F782278BBB2B
:100D8000089528B381E090E002C0880F991F6A950A
:100D9000E2F7822788BB089525B381E090E002C086
:100DA000880F991F6A95E2F7822785BB089522B3C1
:100DB00081E090E002C0880F991F6A95E2F78227D0
:100DC00082BB0895F894813069F120F0823009F4F3
:100DD00051C06BC08E988BB780648BBF613069F057
:100DE00028F0623089F06330B1F05FC085B78D7F45
:100DF00085BF85B78E7F85BF58C085B78D7F85BF7E
:100E000085B7816085BF51C085B7826085BF85B7D2
:100E10008E7F85BF4AC085B7826085BF85B78160F8
:100E200085BF43C08F988BB780688BBF613069F0F6
:100E300028F0623089F06330B1F037C085B7877F22
:100E400085BF85B78B7F85BF30C085B7877F85BF5E
:100E500085B7846085BF29C085B7886085BF85B7A1
:100E60008B7F85BF22C085B7886085BF85B78460CA
:100E700085BF1BC0BD988BB780628BBF613091F07E
:100E800028F0623039F0633049F00FC084B78F7BAF
:100E900084BF0BC084B78F7B84BF07C084B78064D6
:100EA00084BF03C084B7806484BF78940895BB9ADC
:100EB00083B713BE89B7816089BF7894089593B7CB
:100EC0009D7F93BF93B7956093BF882319F08530BA
:100ED00029F0089583B7887F83BF089583B78D7FF6
:100EE00083BF83B7856083BF08950F931F939B01D2
:100EF000AC01A8EEB3E00E94EA07DC01CB016894E4
:100F000015F8B695A795979587951694D1F7092F5B
:100F10001A2F2B2F33270F5F1F4F2F4F3F4F009359
:100F20007A0010937B0020937C0030937D00682F23
:100F300061956093790062BF1F910F91089597FBAF
:100F4000072E16F4009407D077FD09D00E94F5070C
:100F500007FC05D03EF4909581959F4F08957095BC
:100F600061957F4F0895A1E21A2EAA1BBB1BFD01BC
:100F70000DC0AA1FBB1FEE1FFF1FA217B307E40778
:100F8000F50720F0A21BB30BE40BF50B661F771FD0
:100F9000881F991F1A9469F76095709580959095B0
:100FA0009B01AC01BD01CF010895EE0FFF1F05901D
:100FB000F491E02D0994A29FB001B39FC001A39FBB
:100FC000700D811D1124911DB29F700D811D112482
:100FD000911D08950E94DB07A59F900DB49F900D71
:100FE000A49F800D911D11240895AA1BBB1B51E1E4
:100FF00007C0AA1FBB1FA617B70710F0A61BB70B89
:10100000881F991F5A95A9F780959095BC01CD012D
:101010000895BB272A3051F4992342F4BDE29095FC
:101020008095709561957F4F8F4F9F4F0C94190855
:10103000BB27FA01A62F6217710581059105330BB5
:1010400030FB66F0AA27660F771F881F991FAA1F1B
:10105000A21710F0A21B63953850A9F7A05DAA3320
:1010600008F0A95DA19336F7B111B1931082CA01BE
:101070000C943A08DC01FC01672F71917723E1F7AA
:10108000329704C07C916D9370836291AE17BF0755
:08109000C8F30895F894FFCFA6
:021098003C001A
:00000001FF
